:100000000C942A000C9447000C9447000C94470071
:100010000C9447000C9447000C9447000C94470044
:100020000C9447000C9447000C9447000C94230157
:100030000C9447000C9447000C948B010C944700DF
:100040000C9447000C9447000C9447000C94B402A5
:100050000C94470011241FBECFE5D4E0DEBFCDBF16
:1000600010E0A0E6B0E0E8EDF9E002C005900D92E6
:10007000A837B107D9F720E0A8E7B0E001C01D928A
:10008000A13AB207E1F70E9492020C94EA040C94A0
:10009000000088E181BD11BC089517B88FE886B9CA
:1000A0000895806C87B9369A08958DE083BF84E106
:1000B0008CBF82E089BF089583E389B988E98AB952
:1000C00086E880BD08958CB95E9BFECF5E9A089548
:1000D000CF93DF93EC018881882331F021960E9431
:1000E000630089918111FBCFDF91CF910895FC01CD
:1000F0008081813601F584E690E00E946800E5E9A0
:10010000F0E001900020E9F73197AF0145595040E8
:1001100066E970E085E990E00E94C00485E990E01E
:100120000E94680085E990E00E94A20490937E00FE
:1001300080937D000895823601F586E690E00E9466
:100140006800E5E9F0E001900020E9F73197AF01A0
:100150004559504066E970E085E990E00E94C0048E
:1001600085E990E00E94680085E990E00E94A20481
:1001700090938400809383000895833601F588E688
:1001800090E00E946800E5E9F0E001900020E9F7C6
:100190003197AF014559504066E970E085E990E03C
:1001A0000E94C00485E990E00E94680085E990E023
:1001B0000E94A2049093860080938500089584365F
:1001C00001F586E790E00E946800E5E9F0E0019023
:1001D0000020E9F73197AF014559504066E970E0DA
:1001E00085E990E00E94C00485E990E00E946800E3
:1001F00085E990E00E94A20490938A008093890090
:1002000008958536F9F48AE690E00E946800E5E9F1
:10021000F0E001900020E9F73197AF0145595040D7
:1002200066E970E085E990E00E94C00485E990E00D
:100230000E94680085E990E00E94A2049093630008
:100240008093620008951F920F920FB60F921124AF
:100250002F933F934F935F936F937F938F939F93CE
:10026000AF93BF93EF93FF9380917A0090917B00BF
:100270002CB1FC01E557FF4F20832A3259F410922C
:100280007B0010927A0081E090E090937900809357
:10029000780030C04091780050917900452B51F1A1
:1002A0002C37B9F4FC01E557FF4F10826BE870E082
:1002B00085E990E00E94D20485E990E00E947700F1
:1002C00010927B0010927A001092790010927800C0
:1002D00011C00196893091052CF490937B00809396
:1002E0007A0008C010927B0010927A001092790078
:1002F00010927800FF91EF91BF91AF919F918F91F4
:100300007F916F915F914F913F912F910F900FBE11
:100310000F901F9018951F920F920FB60F921124F5
:100320002F933F934F935F936F937F938F939F93FD
:10033000AF93BF93EF93FF9324B135B180917C00CD
:10034000813059F028F0823069F0833081F014C098
:100350003093A00020939F001BC030938200209315
:10036000810016C03093800020937F0011C030932D
:1003700088002093870005C08F5F80937C008430C5
:1003800010F010927C0080917C000E94510004C00B
:100390008F5F80937C00F7CFFF91EF91BF91AF917A
:1003A0009F918F917F916F915F914F913F912F918D
:1003B0000F900FBE0F901F90189520916000309104
:1003C0006100AB01421B530B84179507D4F0620FF9
:1003D000731F681779073CF00E9449008CE081BDCB
:1003E000C098C19808950E9449008CE081BDC098D2
:1003F000C19A08950E9449008CE081BDC198C09ABD
:100400000895620F731F68177907A4F7ECCF209146
:10041000600030916100AB01421B530B84179507BC
:10042000D4F0620F731F681779073CF00E944900EF
:100430008CE081BDC398C29808950E9449008CE069
:1004400081BDC298C39A08950E9449008CE081BD85
:10045000C398C29A0895620F731F68177907A4F7AB
:10046000ECCF9B012C53310982179307D4F0645CC5
:100470007F4F681779073CF00E9449008CE081BDEE
:10048000A998A89808950E9449008CE081BDA89879
:10049000A99A08950E9449008CE081BDA998A89A64
:1004A0000895645C7F4F68177907A4F7ECCF9B0130
:1004B000295131098217930774F0675E7F4F6817DF
:1004C00079071CF0AA98AB980895AA98AB9A08955A
:1004D000AB98AA9A0895675E7F4F68177907ACF3C7
:1004E000F7CF8D9A82E88FBD8AE18EBD8FE19EE4C1
:1004F00097BD86BD0895BC01990F880B990B0E948A
:10050000A9032DEC3CEC44E251E40E94350420E0C8
:1005100030E048EC53E40E9405030E9471037BBD68
:100520006ABD08950E945C000E9471028BE990E010
:100530000E947B020E944D000E94550080E00E94B4
:1005400051008CE690E00E9468007894FFCFCF9332
:10055000DF93EC010E9449008CE081BDCE010E9436
:100560007B02DF91CF9108951F920F920FB60F92E9
:1005700011242F933F934F935F936F937F938F93A8
:100580009F93AF93BF93EF93FF9360919F00709100
:10059000A00080917D0090917E000E94DD0160911D
:1005A00081007091820080918300909184000E946C
:1005B000070260917F00709180008091850090918A
:1005C00086000E94310260918700709188008091BE
:1005D000890090918A000E94570280916200909158
:1005E00063000E94A702FF91EF91BF91AF919F918D
:1005F0008F917F916F915F914F913F912F910F90CC
:100600000FBE0F901F9018955058BB27AA270E9425
:100610001C030C94FB030E94ED0338F00E94F403CA
:1006200020F039F49F3F19F426F40C94EA030EF4F9
:10063000E095E7FB0C94E403E92F0E940C0458F3C7
:10064000BA17620773078407950720F079F4A6F5B7
:100650000C942E040EF4E0950B2EBA2FA02D0B0156
:10066000B90190010C01CA01A0011124FF27591BF7
:1006700099F0593F50F4503E68F11A16F040A22FFD
:10068000232F342F4427585FF3CF4695379527956E
:10069000A795F0405395C9F77EF41F16BA0B620B6D
:1006A000730B840BBAF09150A1F0FF0FBB1F661FB4
:1006B000771F881FC2F70EC0BA0F621F731F841FF7
:1006C00048F4879577956795B795F7959E3F08F01D
:1006D000B0CF9395880F08F09927EE0F97958795DF
:1006E00008950E9478036894B1110C942F04089522
:1006F0000E94140488F09F5798F0B92F9927B7519A
:10070000B0F0E1F0660F771F881F991F1AF0BA95B5
:10071000C9F714C0B13091F00E942E04B1E00895E1
:100720000C942E04672F782F8827B85F39F0B93FD3
:10073000CCF3869577956795B395D9F73EF4909568
:100740008095709561957F4F8F4F9F4F0895E894E6
:1007500009C097FB3EF490958095709561957F4F09
:100760008F4F9F4F9923A9F0F92F96E9BB279395B7
:10077000F695879577956795B795F111F8CFFAF4C7
:10078000BB0F11F460FF1BC06F5F7F4F8F4F9F4FF8
:1007900016C0882311F096E911C0772321F09EE856
:1007A000872F762F05C0662371F096E8862F70E0BC
:1007B00060E02AF09A95660F771F881FDAF7880F96
:1007C0009695879597F9089597F99F6780E870E067
:1007D00060E008959FEF80EC089500240A941616B7
:1007E000170618060906089500240A94121613061F
:1007F000140605060895092E0394000C11F48823AD
:1008000052F0BB0F40F4BF2B11F460FF04C06F5FC8
:100810007F4F8F4F9F4F089557FD9058440F551F9E
:1008200059F05F3F71F04795880F97FB991F61F072
:100830009F3F79F087950895121613061406551FE9
:10084000F2CF4695F1DF08C0161617061806991F55
:10085000F1CF86957105610508940895E894BB274A
:1008600066277727CB0197F908950E9448040C94D6
:10087000FB030E94ED0338F00E94F40320F095235F
:1008800011F00C94E4030C94EA0311240C942F044B
:100890000E940C0470F3959FC1F3950F50E0551F13
:1008A000629FF001729FBB27F00DB11D639FAA27C5
:1008B000F00DB11DAA1F649F6627B00DA11D661F14
:1008C000829F2227B00DA11D621F739FB00DA11D35
:1008D000621F839FA00D611D221F749F3327A00DEF
:1008E000611D231F849F600D211D822F762F6A2F8B
:1008F00011249F5750409AF0F1F088234AF0EE0FF0
:10090000FF1FBB1F661F771F881F91505040A9F71C
:100910009E3F510580F00C94E4030C942F045F3F3C
:10092000E4F3983ED4F3869577956795B795F79558
:10093000E7959F5FC1F7FE2B880F911D96958795D0
:1009400097F90895FC0188279927E894219120328E
:10095000E9F3293010F02E30C8F32B3241F02D325C
:1009600039F4689404C00E94D904820F911D21912A
:1009700020532A30C0F31EF4909581959F4F08951F
:100980006817790768F4FB01DC01E40FF51FA40F79
:10099000B51F02C002900E9241505040D8F7089502
:1009A0000C94E104FB01DC0101900D920020E1F7C1
:1009B00008957AE0979F902D879F802D910D1124A7
:1009C0000895FB01DC0102C001900D92415050409E
:0809D000D8F70895F894FFCF59
:1009D80032008200610062006300650048656C6C4B
:0809E8006F20576F726C640070
:00000001FF
