:100000000C945A000C9477000C9477000C947700B1
:100010000C9477000C9477000C9477000C94770084
:100020000C9477000C9477000C9477000C94770074
:100030000C9477000C9477000C9477000C94770064
:100040000C9477000C9477000C9477000C94770054
:100050000C9477000C9403010C9477000C947700B7
:100060000C9477000C9477000C9477000C94770034
:100070000C9477000C9477000C9477000C94770024
:100080000C9477000C9477000C9477000C94770014
:100090000C9477000C9477000C9477000C94770004
:1000A0000C9477000C9477000C9477000C947700F4
:1000B0000C94770011241FBECFEFD8E0DEBFCDBF78
:1000C00011E0A0E0B1E0E6E8F6E002C005900D9294
:1000D000A231B107D9F721E0A2E1B1E001C01D9240
:1000E000A633B207E1F70E94FD000C9441030C9483
:1000F000000083E38093C40088E18093C10086E818
:100100008093C20008958093C600E0ECF0E0808107
:1001100086FFFDCFE0ECF0E080818064808308956D
:10012000CF93DF93EC018881882331F021960E94E0
:10013000830089918111FBCFDF91CF910895843F96
:1001400041E0940764F0AC01455F51404B325140AF
:1001500048F08132934044F02CE830E005C02EE6B0
:1001600030E002C022E830E0C9010895875C924087
:10017000BC01990F880B990B0E9413022FE832ECF7
:1001800045E350EC0E9477020E94DB01CB01089509
:100190008E5E9240BC01990F880B990B0E9413024E
:1001A00021E73DE34AE550EC0E9477020E94DB0123
:1001B000CB01089582529340BC01990F880B990B93
:1001C0000E94130220E030E040E950E40E947702F0
:1001D0000E94DB01CB010895ECE7F0E080818064B0
:1001E0008083EAE7F0E0808187688083808188608F
:1001F000808380818064808308950E9479000E94BA
:10020000EC007894FFCF1F920F920FB60F9211243B
:100210002F933F934F935F936F937F938F939F930E
:10022000AF93BF93CF93DF93EF93FF932091780029
:1002300030917900EAE7F0E09081906190839091AD
:100240002501992309F489C0963009F486C09130BC
:10025000A9F4C9010E94B6004AE06BE171E00E9476
:100260000C0380E091E00E9490008BE191E00E94FD
:10027000900083E091E00E9490006FC09230A9F45A
:10028000C9010E94C8004AE06BE171E00E940C03C2
:1002900085E091E00E9490008BE191E00E94900047
:1002A00083E091E00E94900058C09330E1F42E5713
:1002B0003240C901880F991F820F931F4AE06BE1FA
:1002C00071E09195819591090E940C0388E091E07D
:1002D0000E9490008BE191E00E94900083E091E009
:1002E0000E9490003AC09430A9F4C9010E94DA003B
:1002F0004AE06BE171E00E940C038BE091E00E9408
:1003000090008BE191E00E94900083E091E00E94D8
:10031000900023C0953009F5C9010E949F00EC01AF
:100320008091120190911301C817D90791F04AE00A
:100330006CE271E0CE010E940C038EE091E00E941D
:1003400090008CE291E00E94900083E091E00E9496
:100350009000D0931301C0931201809125018F5F0B
:10036000809325018FE19EE40197F1F700C0000022
:1003700080912501806C80937C00809125018630DE
:1003800010F010922501EAE7F0E08081806480831C
:10039000FF91EF91DF91CF91BF91AF919F918F919D
:1003A0007F916F915F914F913F912F910F900FBE71
:1003B0000F901F9018950E94E2016894B1110C945F
:1003C000710208950E94560288F09F5798F0B92F45
:1003D0009927B751B0F0E1F0660F771F881F991F7A
:1003E0001AF0BA95C9F714C0B13091F00E947002AA
:1003F000B1E008950C947002672F782F8827B85FBA
:1004000039F0B93FCCF3869577956795B395D9F7D1
:100410003EF490958095709561957F4F8F4F9F4FDB
:100420000895E89409C097FB3EF4909580957095E7
:1004300061957F4F8F4F9F4F9923A9F0F92F96E930
:10044000BB279395F695879577956795B795F111A5
:10045000F8CFFAF4BB0F11F460FF1BC06F5F7F4F42
:100460008F4F9F4F16C0882311F096E911C0772354
:1004700021F09EE8872F762F05C0662371F096E85D
:10048000862F70E060E02AF09A95660F771F881F2C
:10049000DAF7880F9695879597F9089557FD905844
:1004A000440F551F59F05F3F71F04795880F97FB38
:1004B000991F61F09F3F79F08795089512161306F2
:1004C0001406551FF2CF4695F1DF08C01616170621
:1004D0001806991FF1CF8695710561050894089556
:1004E000E894BB2766277727CB0197F908950E94E8
:1004F0008A020C94FB020E94ED0238F00E94F40282
:1005000020F0952311F00C94E4020C94EA021124DB
:100510000C9471020E944E0270F3959FC1F3950FE7
:1005200050E0551F629FF001729FBB27F00DB11D77
:10053000639FAA27F00DB11DAA1F649F6627B00D07
:10054000A11D661F829F2227B00DA11D621F739FF0
:10055000B00DA11D621F839FA00D611D221F749FFE
:100560003327A00D611D231F849F600D211D822F45
:10057000762F6A2F11249F5750409AF0F1F088236C
:100580004AF0EE0FFF1FBB1F661F771F881F915099
:100590005040A9F79E3F510580F00C94E4020C9462
:1005A00071025F3FE4F3983ED4F3869577956795A3
:1005B000B795F795E7959F5FC1F7FE2B880F911DC3
:1005C0009695879597F9089597F99F6780E870E069
:1005D00060E008959FEF80EC089500240A941616B9
:1005E000170618060906089500240A941216130621
:1005F000140605060895092E0394000C11F48823AF
:1006000052F0BB0F40F4BF2B11F460FF04C06F5FCA
:100610007F4F8F4F9F4F0895BB274A3031F4992366
:1006200022F4BDE2909581959F4F0C941803BB274F
:10063000FB015527AA27880F991FAA1FA41710F09E
:10064000A41B83955051B9F7A05DAA3308F0A95DAA
:10065000A193009779F7B111B1931192CB010C944A
:100660003103DC01FC01672F71917723E1F73297A9
:1006700004C07C916D9370836291AE17BF07C8F37D
:060680000895F894FFCF7D
:100686002A61007C002A62002A63002A64002A6527
:02069600000062
:00000001FF
